{
	"data": {
		"bytecode": {
			"linkReferences": {},
			"object": "608060405260176000556040518060400160405280600a81526020016040518060400160405280600681526020017f56697368616c0000000000000000000000000000000000000000000000000000815250815250600160008201518160000155602082015181600101908162000077919062000308565b5050503480156200008757600080fd5b50620003ef565b600081519050919050565b7f4e487b7100000000000000000000000000000000000000000000000000000000600052604160045260246000fd5b7f4e487b7100000000000000000000000000000000000000000000000000000000600052602260045260246000fd5b600060028204905060018216806200011057607f821691505b602082108103620001265762000125620000c8565b5b50919050565b60008190508160005260206000209050919050565b60006020601f8301049050919050565b600082821b905092915050565b600060088302620001907fffffffffffffffffffffffffffffffffffffffffffffffffffffffffffffffff8262000151565b6200019c868362000151565b95508019841693508086168417925050509392505050565b6000819050919050565b6000819050919050565b6000620001e9620001e3620001dd84620001b4565b620001be565b620001b4565b9050919050565b6000819050919050565b6200020583620001c8565b6200021d6200021482620001f0565b8484546200015e565b825550505050565b600090565b6200023462000225565b62000241818484620001fa565b505050565b5b8181101562000269576200025d6000826200022a565b60018101905062000247565b5050565b601f821115620002b85762000282816200012c565b6200028d8462000141565b810160208510156200029d578190505b620002b5620002ac8562000141565b83018262000246565b50505b505050565b600082821c905092915050565b6000620002dd60001984600802620002bd565b1980831691505092915050565b6000620002f88383620002ca565b9150826002028217905092915050565b62000313826200008e565b67ffffffffffffffff8111156200032f576200032e62000099565b5b6200033b8254620000f7565b620003488282856200026d565b600060209050601f8311600181146200038057600084156200036b578287015190505b620003778582620002ea565b865550620003e7565b601f19841662000390866200012c565b60005b82811015620003ba5784890151825560018201915060208501945060208101905062000393565b86831015620003da5784890151620003d6601f891682620002ca565b8355505b6001600288020188555050505b505050505050565b6108d780620003ff6000396000f3fe608060405234801561001057600080fd5b50600436106100575760003560e01c806321668a011461005c5780632e64cec11461008d5780636057361d146100ab5780636f760f41146100c7578063af16a723146100e3575b600080fd5b6100766004803603810190610071919061031b565b610102565b6040516100849291906103e7565b60405180910390f35b6100956101be565b6040516100a29190610417565b60405180910390f35b6100c560048036038101906100c0919061031b565b6101c7565b005b6100e160048036038101906100dc9190610567565b6101d1565b005b6100eb610237565b6040516100f99291906103e7565b60405180910390f35b6003818154811061011257600080fd5b906000526020600020906002020160009150905080600001549080600101805461013b906105f2565b80601f0160208091040260200160405190810160405280929190818152602001828054610167906105f2565b80156101b45780601f10610189576101008083540402835291602001916101b4565b820191906000526020600020905b81548152906001019060200180831161019757829003601f168201915b5050505050905082565b60008054905090565b8060008190555050565b6003604051806040016040528083815260200184815250908060018154018082558091505060019003906000526020600020906002020160009091909190915060008201518160000155602082015181600101908161023091906107cf565b5050505050565b600180600001549080600101805461024e906105f2565b80601f016020809104026020016040519081016040528092919081815260200182805461027a906105f2565b80156102c75780601f1061029c576101008083540402835291602001916102c7565b820191906000526020600020905b8154815290600101906020018083116102aa57829003601f168201915b5050505050905082565b6000604051905090565b600080fd5b600080fd5b6000819050919050565b6102f8816102e5565b811461030357600080fd5b50565b600081359050610315816102ef565b92915050565b600060208284031215610331576103306102db565b5b600061033f84828501610306565b91505092915050565b610351816102e5565b82525050565b600081519050919050565b600082825260208201905092915050565b60005b83811015610391578082015181840152602081019050610376565b60008484015250505050565b6000601f19601f8301169050919050565b60006103b982610357565b6103c38185610362565b93506103d3818560208601610373565b6103dc8161039d565b840191505092915050565b60006040820190506103fc6000830185610348565b818103602083015261040e81846103ae565b90509392505050565b600060208201905061042c6000830184610348565b92915050565b600080fd5b600080fd5b7f4e487b7100000000000000000000000000000000000000000000000000000000600052604160045260246000fd5b6104748261039d565b810181811067ffffffffffffffff821117156104935761049261043c565b5b80604052505050565b60006104a66102d1565b90506104b2828261046b565b919050565b600067ffffffffffffffff8211156104d2576104d161043c565b5b6104db8261039d565b9050602081019050919050565b82818337600083830152505050565b600061050a610505846104b7565b61049c565b90508281526020810184848401111561052657610525610437565b5b6105318482856104e8565b509392505050565b600082601f83011261054e5761054d610432565b5b813561055e8482602086016104f7565b91505092915050565b6000806040838503121561057e5761057d6102db565b5b600083013567ffffffffffffffff81111561059c5761059b6102e0565b5b6105a885828601610539565b92505060206105b985828601610306565b9150509250929050565b7f4e487b7100000000000000000000000000000000000000000000000000000000600052602260045260246000fd5b6000600282049050600182168061060a57607f821691505b60208210810361061d5761061c6105c3565b5b50919050565b60008190508160005260206000209050919050565b60006020601f8301049050919050565b600082821b905092915050565b6000600883026106857fffffffffffffffffffffffffffffffffffffffffffffffffffffffffffffffff82610648565b61068f8683610648565b95508019841693508086168417925050509392505050565b6000819050919050565b60006106cc6106c76106c2846102e5565b6106a7565b6102e5565b9050919050565b6000819050919050565b6106e6836106b1565b6106fa6106f2826106d3565b848454610655565b825550505050565b600090565b61070f610702565b61071a8184846106dd565b505050565b5b8181101561073e57610733600082610707565b600181019050610720565b5050565b601f8211156107835761075481610623565b61075d84610638565b8101602085101561076c578190505b61078061077885610638565b83018261071f565b50505b505050565b600082821c905092915050565b60006107a660001984600802610788565b1980831691505092915050565b60006107bf8383610795565b9150826002028217905092915050565b6107d882610357565b67ffffffffffffffff8111156107f1576107f061043c565b5b6107fb82546105f2565b610806828285610742565b600060209050601f8311600181146108395760008415610827578287015190505b61083185826107b3565b865550610899565b601f19841661084786610623565b60005b8281101561086f5784890151825560018201915060208501945060208101905061084a565b8683101561088c5784890151610888601f891682610795565b8355505b6001600288020188555050505b50505050505056fea26469706673582212207210c5407910f294379f3c0bd48ee627af860c6b999a0175aeb292ca1495deac64736f6c63430008130033",
			"opcodes": "PUSH1 0x80 PUSH1 0x40 MSTORE PUSH1 0x17 PUSH1 0x0 SSTORE PUSH1 0x40 MLOAD DUP1 PUSH1 0x40 ADD PUSH1 0x40 MSTORE DUP1 PUSH1 0xA DUP2 MSTORE PUSH1 0x20 ADD PUSH1 0x40 MLOAD DUP1 PUSH1 0x40 ADD PUSH1 0x40 MSTORE DUP1 PUSH1 0x6 DUP2 MSTORE PUSH1 0x20 ADD PUSH32 0x56697368616C0000000000000000000000000000000000000000000000000000 DUP2 MSTORE POP DUP2 MSTORE POP PUSH1 0x1 PUSH1 0x0 DUP3 ADD MLOAD DUP2 PUSH1 0x0 ADD SSTORE PUSH1 0x20 DUP3 ADD MLOAD DUP2 PUSH1 0x1 ADD SWAP1 DUP2 PUSH3 0x77 SWAP2 SWAP1 PUSH3 0x308 JUMP JUMPDEST POP POP POP CALLVALUE DUP1 ISZERO PUSH3 0x87 JUMPI PUSH1 0x0 DUP1 REVERT JUMPDEST POP PUSH3 0x3EF JUMP JUMPDEST PUSH1 0x0 DUP2 MLOAD SWAP1 POP SWAP2 SWAP1 POP JUMP JUMPDEST PUSH32 0x4E487B7100000000000000000000000000000000000000000000000000000000 PUSH1 0x0 MSTORE PUSH1 0x41 PUSH1 0x4 MSTORE PUSH1 0x24 PUSH1 0x0 REVERT JUMPDEST PUSH32 0x4E487B7100000000000000000000000000000000000000000000000000000000 PUSH1 0x0 MSTORE PUSH1 0x22 PUSH1 0x4 MSTORE PUSH1 0x24 PUSH1 0x0 REVERT JUMPDEST PUSH1 0x0 PUSH1 0x2 DUP3 DIV SWAP1 POP PUSH1 0x1 DUP3 AND DUP1 PUSH3 0x110 JUMPI PUSH1 0x7F DUP3 AND SWAP2 POP JUMPDEST PUSH1 0x20 DUP3 LT DUP2 SUB PUSH3 0x126 JUMPI PUSH3 0x125 PUSH3 0xC8 JUMP JUMPDEST JUMPDEST POP SWAP2 SWAP1 POP JUMP JUMPDEST PUSH1 0x0 DUP2 SWAP1 POP DUP2 PUSH1 0x0 MSTORE PUSH1 0x20 PUSH1 0x0 KECCAK256 SWAP1 POP SWAP2 SWAP1 POP JUMP JUMPDEST PUSH1 0x0 PUSH1 0x20 PUSH1 0x1F DUP4 ADD DIV SWAP1 POP SWAP2 SWAP1 POP JUMP JUMPDEST PUSH1 0x0 DUP3 DUP3 SHL SWAP1 POP SWAP3 SWAP2 POP POP JUMP JUMPDEST PUSH1 0x0 PUSH1 0x8 DUP4 MUL PUSH3 0x190 PUSH32 0xFFFFFFFFFFFFFFFFFFFFFFFFFFFFFFFFFFFFFFFFFFFFFFFFFFFFFFFFFFFFFFFF DUP3 PUSH3 0x151 JUMP JUMPDEST PUSH3 0x19C DUP7 DUP4 PUSH3 0x151 JUMP JUMPDEST SWAP6 POP DUP1 NOT DUP5 AND SWAP4 POP DUP1 DUP7 AND DUP5 OR SWAP3 POP POP POP SWAP4 SWAP3 POP POP POP JUMP JUMPDEST PUSH1 0x0 DUP2 SWAP1 POP SWAP2 SWAP1 POP JUMP JUMPDEST PUSH1 0x0 DUP2 SWAP1 POP SWAP2 SWAP1 POP JUMP JUMPDEST PUSH1 0x0 PUSH3 0x1E9 PUSH3 0x1E3 PUSH3 0x1DD DUP5 PUSH3 0x1B4 JUMP JUMPDEST PUSH3 0x1BE JUMP JUMPDEST PUSH3 0x1B4 JUMP JUMPDEST SWAP1 POP SWAP2 SWAP1 POP JUMP JUMPDEST PUSH1 0x0 DUP2 SWAP1 POP SWAP2 SWAP1 POP JUMP JUMPDEST PUSH3 0x205 DUP4 PUSH3 0x1C8 JUMP JUMPDEST PUSH3 0x21D PUSH3 0x214 DUP3 PUSH3 0x1F0 JUMP JUMPDEST DUP5 DUP5 SLOAD PUSH3 0x15E JUMP JUMPDEST DUP3 SSTORE POP POP POP POP JUMP JUMPDEST PUSH1 0x0 SWAP1 JUMP JUMPDEST PUSH3 0x234 PUSH3 0x225 JUMP JUMPDEST PUSH3 0x241 DUP2 DUP5 DUP5 PUSH3 0x1FA JUMP JUMPDEST POP POP POP JUMP JUMPDEST JUMPDEST DUP2 DUP2 LT ISZERO PUSH3 0x269 JUMPI PUSH3 0x25D PUSH1 0x0 DUP3 PUSH3 0x22A JUMP JUMPDEST PUSH1 0x1 DUP2 ADD SWAP1 POP PUSH3 0x247 JUMP JUMPDEST POP POP JUMP JUMPDEST PUSH1 0x1F DUP3 GT ISZERO PUSH3 0x2B8 JUMPI PUSH3 0x282 DUP2 PUSH3 0x12C JUMP JUMPDEST PUSH3 0x28D DUP5 PUSH3 0x141 JUMP JUMPDEST DUP2 ADD PUSH1 0x20 DUP6 LT ISZERO PUSH3 0x29D JUMPI DUP2 SWAP1 POP JUMPDEST PUSH3 0x2B5 PUSH3 0x2AC DUP6 PUSH3 0x141 JUMP JUMPDEST DUP4 ADD DUP3 PUSH3 0x246 JUMP JUMPDEST POP POP JUMPDEST POP POP POP JUMP JUMPDEST PUSH1 0x0 DUP3 DUP3 SHR SWAP1 POP SWAP3 SWAP2 POP POP JUMP JUMPDEST PUSH1 0x0 PUSH3 0x2DD PUSH1 0x0 NOT DUP5 PUSH1 0x8 MUL PUSH3 0x2BD JUMP JUMPDEST NOT DUP1 DUP4 AND SWAP2 POP POP SWAP3 SWAP2 POP POP JUMP JUMPDEST PUSH1 0x0 PUSH3 0x2F8 DUP4 DUP4 PUSH3 0x2CA JUMP JUMPDEST SWAP2 POP DUP3 PUSH1 0x2 MUL DUP3 OR SWAP1 POP SWAP3 SWAP2 POP POP JUMP JUMPDEST PUSH3 0x313 DUP3 PUSH3 0x8E JUMP JUMPDEST PUSH8 0xFFFFFFFFFFFFFFFF DUP2 GT ISZERO PUSH3 0x32F JUMPI PUSH3 0x32E PUSH3 0x99 JUMP JUMPDEST JUMPDEST PUSH3 0x33B DUP3 SLOAD PUSH3 0xF7 JUMP JUMPDEST PUSH3 0x348 DUP3 DUP3 DUP6 PUSH3 0x26D JUMP JUMPDEST PUSH1 0x0 PUSH1 0x20 SWAP1 POP PUSH1 0x1F DUP4 GT PUSH1 0x1 DUP2 EQ PUSH3 0x380 JUMPI PUSH1 0x0 DUP5 ISZERO PUSH3 0x36B JUMPI DUP3 DUP8 ADD MLOAD SWAP1 POP JUMPDEST PUSH3 0x377 DUP6 DUP3 PUSH3 0x2EA JUMP JUMPDEST DUP7 SSTORE POP PUSH3 0x3E7 JUMP JUMPDEST PUSH1 0x1F NOT DUP5 AND PUSH3 0x390 DUP7 PUSH3 0x12C JUMP JUMPDEST PUSH1 0x0 JUMPDEST DUP3 DUP2 LT ISZERO PUSH3 0x3BA JUMPI DUP5 DUP10 ADD MLOAD DUP3 SSTORE PUSH1 0x1 DUP3 ADD SWAP2 POP PUSH1 0x20 DUP6 ADD SWAP5 POP PUSH1 0x20 DUP2 ADD SWAP1 POP PUSH3 0x393 JUMP JUMPDEST DUP7 DUP4 LT ISZERO PUSH3 0x3DA JUMPI DUP5 DUP10 ADD MLOAD PUSH3 0x3D6 PUSH1 0x1F DUP10 AND DUP3 PUSH3 0x2CA JUMP JUMPDEST DUP4 SSTORE POP JUMPDEST PUSH1 0x1 PUSH1 0x2 DUP9 MUL ADD DUP9 SSTORE POP POP POP JUMPDEST POP POP POP POP POP POP JUMP JUMPDEST PUSH2 0x8D7 DUP1 PUSH3 0x3FF PUSH1 0x0 CODECOPY PUSH1 0x0 RETURN INVALID PUSH1 0x80 PUSH1 0x40 MSTORE CALLVALUE DUP1 ISZERO PUSH2 0x10 JUMPI PUSH1 0x0 DUP1 REVERT JUMPDEST POP PUSH1 0x4 CALLDATASIZE LT PUSH2 0x57 JUMPI PUSH1 0x0 CALLDATALOAD PUSH1 0xE0 SHR DUP1 PUSH4 0x21668A01 EQ PUSH2 0x5C JUMPI DUP1 PUSH4 0x2E64CEC1 EQ PUSH2 0x8D JUMPI DUP1 PUSH4 0x6057361D EQ PUSH2 0xAB JUMPI DUP1 PUSH4 0x6F760F41 EQ PUSH2 0xC7 JUMPI DUP1 PUSH4 0xAF16A723 EQ PUSH2 0xE3 JUMPI JUMPDEST PUSH1 0x0 DUP1 REVERT JUMPDEST PUSH2 0x76 PUSH1 0x4 DUP1 CALLDATASIZE SUB DUP2 ADD SWAP1 PUSH2 0x71 SWAP2 SWAP1 PUSH2 0x31B JUMP JUMPDEST PUSH2 0x102 JUMP JUMPDEST PUSH1 0x40 MLOAD PUSH2 0x84 SWAP3 SWAP2 SWAP1 PUSH2 0x3E7 JUMP JUMPDEST PUSH1 0x40 MLOAD DUP1 SWAP2 SUB SWAP1 RETURN JUMPDEST PUSH2 0x95 PUSH2 0x1BE JUMP JUMPDEST PUSH1 0x40 MLOAD PUSH2 0xA2 SWAP2 SWAP1 PUSH2 0x417 JUMP JUMPDEST PUSH1 0x40 MLOAD DUP1 SWAP2 SUB SWAP1 RETURN JUMPDEST PUSH2 0xC5 PUSH1 0x4 DUP1 CALLDATASIZE SUB DUP2 ADD SWAP1 PUSH2 0xC0 SWAP2 SWAP1 PUSH2 0x31B JUMP JUMPDEST PUSH2 0x1C7 JUMP JUMPDEST STOP JUMPDEST PUSH2 0xE1 PUSH1 0x4 DUP1 CALLDATASIZE SUB DUP2 ADD SWAP1 PUSH2 0xDC SWAP2 SWAP1 PUSH2 0x567 JUMP JUMPDEST PUSH2 0x1D1 JUMP JUMPDEST STOP JUMPDEST PUSH2 0xEB PUSH2 0x237 JUMP JUMPDEST PUSH1 0x40 MLOAD PUSH2 0xF9 SWAP3 SWAP2 SWAP1 PUSH2 0x3E7 JUMP JUMPDEST PUSH1 0x40 MLOAD DUP1 SWAP2 SUB SWAP1 RETURN JUMPDEST PUSH1 0x3 DUP2 DUP2 SLOAD DUP2 LT PUSH2 0x112 JUMPI PUSH1 0x0 DUP1 REVERT JUMPDEST SWAP1 PUSH1 0x0 MSTORE PUSH1 0x20 PUSH1 0x0 KECCAK256 SWAP1 PUSH1 0x2 MUL ADD PUSH1 0x0 SWAP2 POP SWAP1 POP DUP1 PUSH1 0x0 ADD SLOAD SWAP1 DUP1 PUSH1 0x1 ADD DUP1 SLOAD PUSH2 0x13B SWAP1 PUSH2 0x5F2 JUMP JUMPDEST DUP1 PUSH1 0x1F ADD PUSH1 0x20 DUP1 SWAP2 DIV MUL PUSH1 0x20 ADD PUSH1 0x40 MLOAD SWAP1 DUP2 ADD PUSH1 0x40 MSTORE DUP1 SWAP3 SWAP2 SWAP1 DUP2 DUP2 MSTORE PUSH1 0x20 ADD DUP3 DUP1 SLOAD PUSH2 0x167 SWAP1 PUSH2 0x5F2 JUMP JUMPDEST DUP1 ISZERO PUSH2 0x1B4 JUMPI DUP1 PUSH1 0x1F LT PUSH2 0x189 JUMPI PUSH2 0x100 DUP1 DUP4 SLOAD DIV MUL DUP4 MSTORE SWAP2 PUSH1 0x20 ADD SWAP2 PUSH2 0x1B4 JUMP JUMPDEST DUP3 ADD SWAP2 SWAP1 PUSH1 0x0 MSTORE PUSH1 0x20 PUSH1 0x0 KECCAK256 SWAP1 JUMPDEST DUP2 SLOAD DUP2 MSTORE SWAP1 PUSH1 0x1 ADD SWAP1 PUSH1 0x20 ADD DUP1 DUP4 GT PUSH2 0x197 JUMPI DUP3 SWAP1 SUB PUSH1 0x1F AND DUP3 ADD SWAP2 JUMPDEST POP POP POP POP POP SWAP1 POP DUP3 JUMP JUMPDEST PUSH1 0x0 DUP1 SLOAD SWAP1 POP SWAP1 JUMP JUMPDEST DUP1 PUSH1 0x0 DUP2 SWAP1 SSTORE POP POP JUMP JUMPDEST PUSH1 0x3 PUSH1 0x40 MLOAD DUP1 PUSH1 0x40 ADD PUSH1 0x40 MSTORE DUP1 DUP4 DUP2 MSTORE PUSH1 0x20 ADD DUP5 DUP2 MSTORE POP SWAP1 DUP1 PUSH1 0x1 DUP2 SLOAD ADD DUP1 DUP3 SSTORE DUP1 SWAP2 POP POP PUSH1 0x1 SWAP1 SUB SWAP1 PUSH1 0x0 MSTORE PUSH1 0x20 PUSH1 0x0 KECCAK256 SWAP1 PUSH1 0x2 MUL ADD PUSH1 0x0 SWAP1 SWAP2 SWAP1 SWAP2 SWAP1 SWAP2 POP PUSH1 0x0 DUP3 ADD MLOAD DUP2 PUSH1 0x0 ADD SSTORE PUSH1 0x20 DUP3 ADD MLOAD DUP2 PUSH1 0x1 ADD SWAP1 DUP2 PUSH2 0x230 SWAP2 SWAP1 PUSH2 0x7CF JUMP JUMPDEST POP POP POP POP POP JUMP JUMPDEST PUSH1 0x1 DUP1 PUSH1 0x0 ADD SLOAD SWAP1 DUP1 PUSH1 0x1 ADD DUP1 SLOAD PUSH2 0x24E SWAP1 PUSH2 0x5F2 JUMP JUMPDEST DUP1 PUSH1 0x1F ADD PUSH1 0x20 DUP1 SWAP2 DIV MUL PUSH1 0x20 ADD PUSH1 0x40 MLOAD SWAP1 DUP2 ADD PUSH1 0x40 MSTORE DUP1 SWAP3 SWAP2 SWAP1 DUP2 DUP2 MSTORE PUSH1 0x20 ADD DUP3 DUP1 SLOAD PUSH2 0x27A SWAP1 PUSH2 0x5F2 JUMP JUMPDEST DUP1 ISZERO PUSH2 0x2C7 JUMPI DUP1 PUSH1 0x1F LT PUSH2 0x29C JUMPI PUSH2 0x100 DUP1 DUP4 SLOAD DIV MUL DUP4 MSTORE SWAP2 PUSH1 0x20 ADD SWAP2 PUSH2 0x2C7 JUMP JUMPDEST DUP3 ADD SWAP2 SWAP1 PUSH1 0x0 MSTORE PUSH1 0x20 PUSH1 0x0 KECCAK256 SWAP1 JUMPDEST DUP2 SLOAD DUP2 MSTORE SWAP1 PUSH1 0x1 ADD SWAP1 PUSH1 0x20 ADD DUP1 DUP4 GT PUSH2 0x2AA JUMPI DUP3 SWAP1 SUB PUSH1 0x1F AND DUP3 ADD SWAP2 JUMPDEST POP POP POP POP POP SWAP1 POP DUP3 JUMP JUMPDEST PUSH1 0x0 PUSH1 0x40 MLOAD SWAP1 POP SWAP1 JUMP JUMPDEST PUSH1 0x0 DUP1 REVERT JUMPDEST PUSH1 0x0 DUP1 REVERT JUMPDEST PUSH1 0x0 DUP2 SWAP1 POP SWAP2 SWAP1 POP JUMP JUMPDEST PUSH2 0x2F8 DUP2 PUSH2 0x2E5 JUMP JUMPDEST DUP2 EQ PUSH2 0x303 JUMPI PUSH1 0x0 DUP1 REVERT JUMPDEST POP JUMP JUMPDEST PUSH1 0x0 DUP2 CALLDATALOAD SWAP1 POP PUSH2 0x315 DUP2 PUSH2 0x2EF JUMP JUMPDEST SWAP3 SWAP2 POP POP JUMP JUMPDEST PUSH1 0x0 PUSH1 0x20 DUP3 DUP5 SUB SLT ISZERO PUSH2 0x331 JUMPI PUSH2 0x330 PUSH2 0x2DB JUMP JUMPDEST JUMPDEST PUSH1 0x0 PUSH2 0x33F DUP5 DUP3 DUP6 ADD PUSH2 0x306 JUMP JUMPDEST SWAP2 POP POP SWAP3 SWAP2 POP POP JUMP JUMPDEST PUSH2 0x351 DUP2 PUSH2 0x2E5 JUMP JUMPDEST DUP3 MSTORE POP POP JUMP JUMPDEST PUSH1 0x0 DUP2 MLOAD SWAP1 POP SWAP2 SWAP1 POP JUMP JUMPDEST PUSH1 0x0 DUP3 DUP3 MSTORE PUSH1 0x20 DUP3 ADD SWAP1 POP SWAP3 SWAP2 POP POP JUMP JUMPDEST PUSH1 0x0 JUMPDEST DUP4 DUP2 LT ISZERO PUSH2 0x391 JUMPI DUP1 DUP3 ADD MLOAD DUP2 DUP5 ADD MSTORE PUSH1 0x20 DUP2 ADD SWAP1 POP PUSH2 0x376 JUMP JUMPDEST PUSH1 0x0 DUP5 DUP5 ADD MSTORE POP POP POP POP JUMP JUMPDEST PUSH1 0x0 PUSH1 0x1F NOT PUSH1 0x1F DUP4 ADD AND SWAP1 POP SWAP2 SWAP1 POP JUMP JUMPDEST PUSH1 0x0 PUSH2 0x3B9 DUP3 PUSH2 0x357 JUMP JUMPDEST PUSH2 0x3C3 DUP2 DUP6 PUSH2 0x362 JUMP JUMPDEST SWAP4 POP PUSH2 0x3D3 DUP2 DUP6 PUSH1 0x20 DUP7 ADD PUSH2 0x373 JUMP JUMPDEST PUSH2 0x3DC DUP2 PUSH2 0x39D JUMP JUMPDEST DUP5 ADD SWAP2 POP POP SWAP3 SWAP2 POP POP JUMP JUMPDEST PUSH1 0x0 PUSH1 0x40 DUP3 ADD SWAP1 POP PUSH2 0x3FC PUSH1 0x0 DUP4 ADD DUP6 PUSH2 0x348 JUMP JUMPDEST DUP2 DUP2 SUB PUSH1 0x20 DUP4 ADD MSTORE PUSH2 0x40E DUP2 DUP5 PUSH2 0x3AE JUMP JUMPDEST SWAP1 POP SWAP4 SWAP3 POP POP POP JUMP JUMPDEST PUSH1 0x0 PUSH1 0x20 DUP3 ADD SWAP1 POP PUSH2 0x42C PUSH1 0x0 DUP4 ADD DUP5 PUSH2 0x348 JUMP JUMPDEST SWAP3 SWAP2 POP POP JUMP JUMPDEST PUSH1 0x0 DUP1 REVERT JUMPDEST PUSH1 0x0 DUP1 REVERT JUMPDEST PUSH32 0x4E487B7100000000000000000000000000000000000000000000000000000000 PUSH1 0x0 MSTORE PUSH1 0x41 PUSH1 0x4 MSTORE PUSH1 0x24 PUSH1 0x0 REVERT JUMPDEST PUSH2 0x474 DUP3 PUSH2 0x39D JUMP JUMPDEST DUP2 ADD DUP2 DUP2 LT PUSH8 0xFFFFFFFFFFFFFFFF DUP3 GT OR ISZERO PUSH2 0x493 JUMPI PUSH2 0x492 PUSH2 0x43C JUMP JUMPDEST JUMPDEST DUP1 PUSH1 0x40 MSTORE POP POP POP JUMP JUMPDEST PUSH1 0x0 PUSH2 0x4A6 PUSH2 0x2D1 JUMP JUMPDEST SWAP1 POP PUSH2 0x4B2 DUP3 DUP3 PUSH2 0x46B JUMP JUMPDEST SWAP2 SWAP1 POP JUMP JUMPDEST PUSH1 0x0 PUSH8 0xFFFFFFFFFFFFFFFF DUP3 GT ISZERO PUSH2 0x4D2 JUMPI PUSH2 0x4D1 PUSH2 0x43C JUMP JUMPDEST JUMPDEST PUSH2 0x4DB DUP3 PUSH2 0x39D JUMP JUMPDEST SWAP1 POP PUSH1 0x20 DUP2 ADD SWAP1 POP SWAP2 SWAP1 POP JUMP JUMPDEST DUP3 DUP2 DUP4 CALLDATACOPY PUSH1 0x0 DUP4 DUP4 ADD MSTORE POP POP POP JUMP JUMPDEST PUSH1 0x0 PUSH2 0x50A PUSH2 0x505 DUP5 PUSH2 0x4B7 JUMP JUMPDEST PUSH2 0x49C JUMP JUMPDEST SWAP1 POP DUP3 DUP2 MSTORE PUSH1 0x20 DUP2 ADD DUP5 DUP5 DUP5 ADD GT ISZERO PUSH2 0x526 JUMPI PUSH2 0x525 PUSH2 0x437 JUMP JUMPDEST JUMPDEST PUSH2 0x531 DUP5 DUP3 DUP6 PUSH2 0x4E8 JUMP JUMPDEST POP SWAP4 SWAP3 POP POP POP JUMP JUMPDEST PUSH1 0x0 DUP3 PUSH1 0x1F DUP4 ADD SLT PUSH2 0x54E JUMPI PUSH2 0x54D PUSH2 0x432 JUMP JUMPDEST JUMPDEST DUP2 CALLDATALOAD PUSH2 0x55E DUP5 DUP3 PUSH1 0x20 DUP7 ADD PUSH2 0x4F7 JUMP JUMPDEST SWAP2 POP POP SWAP3 SWAP2 POP POP JUMP JUMPDEST PUSH1 0x0 DUP1 PUSH1 0x40 DUP4 DUP6 SUB SLT ISZERO PUSH2 0x57E JUMPI PUSH2 0x57D PUSH2 0x2DB JUMP JUMPDEST JUMPDEST PUSH1 0x0 DUP4 ADD CALLDATALOAD PUSH8 0xFFFFFFFFFFFFFFFF DUP2 GT ISZERO PUSH2 0x59C JUMPI PUSH2 0x59B PUSH2 0x2E0 JUMP JUMPDEST JUMPDEST PUSH2 0x5A8 DUP6 DUP3 DUP7 ADD PUSH2 0x539 JUMP JUMPDEST SWAP3 POP POP PUSH1 0x20 PUSH2 0x5B9 DUP6 DUP3 DUP7 ADD PUSH2 0x306 JUMP JUMPDEST SWAP2 POP POP SWAP3 POP SWAP3 SWAP1 POP JUMP JUMPDEST PUSH32 0x4E487B7100000000000000000000000000000000000000000000000000000000 PUSH1 0x0 MSTORE PUSH1 0x22 PUSH1 0x4 MSTORE PUSH1 0x24 PUSH1 0x0 REVERT JUMPDEST PUSH1 0x0 PUSH1 0x2 DUP3 DIV SWAP1 POP PUSH1 0x1 DUP3 AND DUP1 PUSH2 0x60A JUMPI PUSH1 0x7F DUP3 AND SWAP2 POP JUMPDEST PUSH1 0x20 DUP3 LT DUP2 SUB PUSH2 0x61D JUMPI PUSH2 0x61C PUSH2 0x5C3 JUMP JUMPDEST JUMPDEST POP SWAP2 SWAP1 POP JUMP JUMPDEST PUSH1 0x0 DUP2 SWAP1 POP DUP2 PUSH1 0x0 MSTORE PUSH1 0x20 PUSH1 0x0 KECCAK256 SWAP1 POP SWAP2 SWAP1 POP JUMP JUMPDEST PUSH1 0x0 PUSH1 0x20 PUSH1 0x1F DUP4 ADD DIV SWAP1 POP SWAP2 SWAP1 POP JUMP JUMPDEST PUSH1 0x0 DUP3 DUP3 SHL SWAP1 POP SWAP3 SWAP2 POP POP JUMP JUMPDEST PUSH1 0x0 PUSH1 0x8 DUP4 MUL PUSH2 0x685 PUSH32 0xFFFFFFFFFFFFFFFFFFFFFFFFFFFFFFFFFFFFFFFFFFFFFFFFFFFFFFFFFFFFFFFF DUP3 PUSH2 0x648 JUMP JUMPDEST PUSH2 0x68F DUP7 DUP4 PUSH2 0x648 JUMP JUMPDEST SWAP6 POP DUP1 NOT DUP5 AND SWAP4 POP DUP1 DUP7 AND DUP5 OR SWAP3 POP POP POP SWAP4 SWAP3 POP POP POP JUMP JUMPDEST PUSH1 0x0 DUP2 SWAP1 POP SWAP2 SWAP1 POP JUMP JUMPDEST PUSH1 0x0 PUSH2 0x6CC PUSH2 0x6C7 PUSH2 0x6C2 DUP5 PUSH2 0x2E5 JUMP JUMPDEST PUSH2 0x6A7 JUMP JUMPDEST PUSH2 0x2E5 JUMP JUMPDEST SWAP1 POP SWAP2 SWAP1 POP JUMP JUMPDEST PUSH1 0x0 DUP2 SWAP1 POP SWAP2 SWAP1 POP JUMP JUMPDEST PUSH2 0x6E6 DUP4 PUSH2 0x6B1 JUMP JUMPDEST PUSH2 0x6FA PUSH2 0x6F2 DUP3 PUSH2 0x6D3 JUMP JUMPDEST DUP5 DUP5 SLOAD PUSH2 0x655 JUMP JUMPDEST DUP3 SSTORE POP POP POP POP JUMP JUMPDEST PUSH1 0x0 SWAP1 JUMP JUMPDEST PUSH2 0x70F PUSH2 0x702 JUMP JUMPDEST PUSH2 0x71A DUP2 DUP5 DUP5 PUSH2 0x6DD JUMP JUMPDEST POP POP POP JUMP JUMPDEST JUMPDEST DUP2 DUP2 LT ISZERO PUSH2 0x73E JUMPI PUSH2 0x733 PUSH1 0x0 DUP3 PUSH2 0x707 JUMP JUMPDEST PUSH1 0x1 DUP2 ADD SWAP1 POP PUSH2 0x720 JUMP JUMPDEST POP POP JUMP JUMPDEST PUSH1 0x1F DUP3 GT ISZERO PUSH2 0x783 JUMPI PUSH2 0x754 DUP2 PUSH2 0x623 JUMP JUMPDEST PUSH2 0x75D DUP5 PUSH2 0x638 JUMP JUMPDEST DUP2 ADD PUSH1 0x20 DUP6 LT ISZERO PUSH2 0x76C JUMPI DUP2 SWAP1 POP JUMPDEST PUSH2 0x780 PUSH2 0x778 DUP6 PUSH2 0x638 JUMP JUMPDEST DUP4 ADD DUP3 PUSH2 0x71F JUMP JUMPDEST POP POP JUMPDEST POP POP POP JUMP JUMPDEST PUSH1 0x0 DUP3 DUP3 SHR SWAP1 POP SWAP3 SWAP2 POP POP JUMP JUMPDEST PUSH1 0x0 PUSH2 0x7A6 PUSH1 0x0 NOT DUP5 PUSH1 0x8 MUL PUSH2 0x788 JUMP JUMPDEST NOT DUP1 DUP4 AND SWAP2 POP POP SWAP3 SWAP2 POP POP JUMP JUMPDEST PUSH1 0x0 PUSH2 0x7BF DUP4 DUP4 PUSH2 0x795 JUMP JUMPDEST SWAP2 POP DUP3 PUSH1 0x2 MUL DUP3 OR SWAP1 POP SWAP3 SWAP2 POP POP JUMP JUMPDEST PUSH2 0x7D8 DUP3 PUSH2 0x357 JUMP JUMPDEST PUSH8 0xFFFFFFFFFFFFFFFF DUP2 GT ISZERO PUSH2 0x7F1 JUMPI PUSH2 0x7F0 PUSH2 0x43C JUMP JUMPDEST JUMPDEST PUSH2 0x7FB DUP3 SLOAD PUSH2 0x5F2 JUMP JUMPDEST PUSH2 0x806 DUP3 DUP3 DUP6 PUSH2 0x742 JUMP JUMPDEST PUSH1 0x0 PUSH1 0x20 SWAP1 POP PUSH1 0x1F DUP4 GT PUSH1 0x1 DUP2 EQ PUSH2 0x839 JUMPI PUSH1 0x0 DUP5 ISZERO PUSH2 0x827 JUMPI DUP3 DUP8 ADD MLOAD SWAP1 POP JUMPDEST PUSH2 0x831 DUP6 DUP3 PUSH2 0x7B3 JUMP JUMPDEST DUP7 SSTORE POP PUSH2 0x899 JUMP JUMPDEST PUSH1 0x1F NOT DUP5 AND PUSH2 0x847 DUP7 PUSH2 0x623 JUMP JUMPDEST PUSH1 0x0 JUMPDEST DUP3 DUP2 LT ISZERO PUSH2 0x86F JUMPI DUP5 DUP10 ADD MLOAD DUP3 SSTORE PUSH1 0x1 DUP3 ADD SWAP2 POP PUSH1 0x20 DUP6 ADD SWAP5 POP PUSH1 0x20 DUP2 ADD SWAP1 POP PUSH2 0x84A JUMP JUMPDEST DUP7 DUP4 LT ISZERO PUSH2 0x88C JUMPI DUP5 DUP10 ADD MLOAD PUSH2 0x888 PUSH1 0x1F DUP10 AND DUP3 PUSH2 0x795 JUMP JUMPDEST DUP4 SSTORE POP JUMPDEST PUSH1 0x1 PUSH1 0x2 DUP9 MUL ADD DUP9 SSTORE POP POP POP JUMPDEST POP POP POP POP POP POP JUMP INVALID LOG2 PUSH5 0x6970667358 0x22 SLT KECCAK256 PUSH19 0x10C5407910F294379F3C0BD48EE627AF860C6B SWAP10 SWAP11 ADD PUSH22 0xAEB292CA1495DEAC64736F6C63430008130033000000 "
		},
		"gasEstimates": {
			"creation": {
				"codeDepositCost": "452600",
				"executionCost": "infinite",
				"totalCost": "infinite"
			},
			"external": {
				"addPerson(string,uint256)": "infinite",
				"friendList(uint256)": "infinite",
				"myFriend()": "infinite",
				"retrieve()": "2437",
				"store(uint256)": "22542"
			}
		},
		"methodIdentifiers": {
			"addPerson(string,uint256)": "6f760f41",
			"friendList(uint256)": "21668a01",
			"myFriend()": "af16a723",
			"retrieve()": "2e64cec1",
			"store(uint256)": "6057361d"
		}
	},
	"abi": [
		{
			"inputs": [
				{
					"internalType": "string",
					"name": "_name",
					"type": "string"
				},
				{
					"internalType": "uint256",
					"name": "_favouriteNumber",
					"type": "uint256"
				}
			],
			"name": "addPerson",
			"outputs": [],
			"stateMutability": "nonpayable",
			"type": "function"
		},
		{
			"inputs": [
				{
					"internalType": "uint256",
					"name": "",
					"type": "uint256"
				}
			],
			"name": "friendList",
			"outputs": [
				{
					"internalType": "uint256",
					"name": "favouriteNumber",
					"type": "uint256"
				},
				{
					"internalType": "string",
					"name": "name",
					"type": "string"
				}
			],
			"stateMutability": "view",
			"type": "function"
		},
		{
			"inputs": [],
			"name": "myFriend",
			"outputs": [
				{
					"internalType": "uint256",
					"name": "favouriteNumber",
					"type": "uint256"
				},
				{
					"internalType": "string",
					"name": "name",
					"type": "string"
				}
			],
			"stateMutability": "view",
			"type": "function"
		},
		{
			"inputs": [],
			"name": "retrieve",
			"outputs": [
				{
					"internalType": "uint256",
					"name": "",
					"type": "uint256"
				}
			],
			"stateMutability": "view",
			"type": "function"
		},
		{
			"inputs": [
				{
					"internalType": "uint256",
					"name": "_number",
					"type": "uint256"
				}
			],
			"name": "store",
			"outputs": [],
			"stateMutability": "nonpayable",
			"type": "function"
		}
	]
}